:100000000C942A000C9424060C9447000C9447008E
:100010000C9447000C9447000C9447000C94470044
:100020000C9447000C9447000C944B060C9447002A
:100030000C9447000C9447000C9447000C94470024
:100040000C9447000C9447000C9447000C94470014
:100050000C94470011241FBECFE5D8E0DEBFCDBF12
:1000600010E0A0E6B0E0E0E1FFE002C005900D92F4
:10007000AA36B107D9F720E0AAE6B0E001C01D9288
:10008000A437B207E1F70E9449000C9486070C944C
:10009000000081E00E949C0282E00E949C0283E0BA
:1000A0000E949C0284E00E949C020E94AD010E947A
:1000B000B30381E00E94670382E00E94670383E04C
:1000C0000E94670311E0FF24F39401E0112309F477
:1000D00092C02FEF89E698E1215080409040E1F7EF
:1000E00000C000000E9483020E94B603EC01BC0124
:1000F00080E090E00E94D0060E94FE01FF2089F17E
:10010000C233D105E1F0C436D105C9F0C639D105F5
:10011000B1F0C83CD10599F0CA3FD10581F0CC328D
:1001200021E0D20761F0CE3581E0D80741F0C03937
:1001300091E0D90721F0C23C21E0D20719F484E014
:100140000E941403C23C81E0D80758F061E081E0CE
:100150000E94870280E690E00E94E80184E00E940D
:100160001403002309F447C0C436D10548F483E0E2
:100170000E94DA0282E00E94DA0281E00E94DA0242
:10018000CE01855691098336910548F483E00E949B
:10019000BB0282E00E94DA0281E00E94DA02CE0114
:1001A000895C91098336910548F483E00E94BB0283
:1001B00082E00E94BB0281E00E94DA02CE018D52F1
:1001C00091408336910548F483E00E94BB0282E0AF
:1001D0000E94BB0281E00E94BB02C159D140C336DC
:1001E000D10548F483E00E94F90282E00E94F902FE
:1001F00081E00E94F90281E00E94960381110BC008
:1002000081E00E94DA0282E00E94DA0283E00E942A
:10021000DA0281E0082782E00E949603811105C07E
:1002200084E00E94DA0281E0F82683E00E949603CF
:1002300081114CCF0E94830267E080E00E94870218
:1002400086E690E00E94E80181E018273FCFCF9337
:10025000C82F61E08BE00E946A0460E086E10E94A2
:100260006A048BB39C2F969598778778892B8BBBE4
:1002700061E08CE00E946A048FE99FE00197F1F74A
:1002800000C0000060E08CE00E946A048FE19EE400
:100290000197F1F700C000008BB3CC0FCC0FCC0F4F
:1002A000C8778778C82BCBBB61E08CE00E946A04DA
:1002B0008FE99FE00197F1F700C0000060E08CE05B
:1002C0000E946A048FE19EE40197F1F700C00000EC
:1002D000CF910895CF93C82F60E08BE00E946A040D
:1002E00060E086E10E946A048BB39C2F9695987714
:1002F0008778892B8BBB61E08CE00E946A048FE9D0
:100300009FE00197F1F700C0000060E08CE00E94E0
:100310006A048FE19EE40197F1F700C000008BB3FF
:10032000CC0FCC0FCC0FC8778778C82BCBBB61E044
:100330008CE00E946A048FE99FE00197F1F700C00A
:10034000000060E08CE00E946A048FE19EE4019767
:10035000F1F700C00000CF91089561E08BE00E94AA
:10036000D40361E08CE00E94D40361E086E10E9446
:10037000D40361E08DE00E94D40361E08EE00E942E
:10038000D40361E08FE00E94D40361E080E10E9429
:10039000D4032FEF89E698E1215080409040E1F7A7
:1003A00000C0000083E30E946A0182E30E946A01A8
:1003B00088E20E946A018CE00E946A0182E00E9449
:1003C0006A0186E00E946A0181E00E946A01089544
:1003D0000F931F93CF93FC018081882359F08F01E5
:1003E000C0E00E942701CF5FF801EC0FF11D808172
:1003F0008111F7CFCF911F910F9108954F925F9286
:100400006F927F92AF92BF92CF92DF92EF92FF9264
:100410001F93CF93DF93CDB7DEB72A970FB6F8942B
:10042000DEBF0FBECDBF0E949A066B017C01FE01AC
:1004300031968AE0DF011D928A95E9F7C114D10453
:10044000E104F10421F480E30E94270148C0FF2069
:1004500084F48DE20E942701F094E094D094C0943B
:10046000C11CD11CE11CF11CC114D104E104F10434
:10047000B1F110E00F2EFAE04F2E512C612C712CAF
:10048000F02D01C0182FAA24A394B12CAC0EBD1ED0
:10049000A10EB11C17FDBA94C701B601A3019201C8
:1004A0000E945807F501608381E0810FC22ED32E90
:1004B000E42EF52EC114D104E104F10419F711233F
:1004C00074F0E1E0F0E0EC0FFD1FE10FF11D17FD0E
:1004D000FA958081805D0E942701115092F72A963B
:1004E0000FB6F894DEBF0FBECDBFDF91CF911F9145
:1004F000FF90EF90DF90CF90BF90AF907F906F9084
:100500005F904F90089581E00E946A010895CF9313
:10051000DF9300D0CDB7DEB790E8998390EC9A8353
:10052000FE01E80FF11D8181860F0E946A010F9084
:100530000F90DF91CF910895823071F018F48130DF
:1005400031F00895833069F0843081F0089561E0DE
:100550008EE10E94D403089561E08FE10E94D403EC
:10056000089561E080E20E94D403089561E080E292
:100570000E94D4030895823071F018F4813031F074
:100580000895833069F0843081F0089561E08EE150
:100590000E946A04089561E08FE10E946A04089550
:1005A00061E080E20E946A04089561E081E20E94B5
:1005B0006A040895823071F018F4813031F00895A2
:1005C000833069F0843081F0089560E08EE10E940C
:1005D0006A04089560E08FE10E946A04089560E073
:1005E00080E20E946A04089560E081E20E946A0449
:1005F0000895823069F018F4813031F00895833025
:1006000059F0843069F008958EE10E940005089544
:100610008FE10E940005089580E20E940005089580
:1006200081E20E94000508958230D9F018F48130EB
:1006300031F00895833039F18430B9F1089561E0E3
:100640008EE10E946A042FEF80E792E02150804003
:100650009040E1F700C0000060E08EE10E946A0473
:10066000089561E08FE10E946A042FEF80E792E035
:10067000215080409040E1F700C0000060E08FE131
:100680000E946A04089561E080E20E946A042FEFEC
:1006900080E792E0215080409040E1F700C00000E8
:1006A00060E080E20E946A04089561E081E20E94B5
:1006B0006A042FEF80E792E0215080409040E1F7FC
:1006C00000C0000060E081E20E946A040895823068
:1006D00091F018F4813031F008958330A9F084301E
:1006E000E1F0089560E08AE20E94D40361E08AE2CA
:1006F0000E948E05089560E08BE20E94D40361E0C1
:100700008BE20E948E05089560E08CE20E94D40383
:1007100061E08CE20E948E05089560E08DE20E9407
:10072000D40361E08DE20E948E050895823069F065
:1007300018F4813031F015C0833059F0843069F0FD
:1007400010C08AE20E944A0508958BE20E944A0581
:1007500008958CE20E944A0508958DE20E944A05A0
:10076000089580E008950E94C50308950E94CE0375
:100770009C01A4EFB1E00E9477072FEF33E040E047
:1007800050E00E943607C90108953E9A3F983D986F
:10079000309A319A329A359A379A0895369A349B1C
:1007A000FECF84B195B108959DEC899F912D1124C0
:1007B000969596959695392F330F232F220F220F5A
:1007C000230F821B662321F0613009F444C0089591
:1007D0009230B9F018F4913031F008959330F9F077
:1007E000943059F108954AB321E030E0B90102C0D4
:1007F000660F771F8A95E2F7CB01809584238ABB29
:10080000089547B321E030E0B90102C0660F771FB9
:100810008A95E2F7CB018095842387BB089544B382
:1008200021E030E0B90102C0660F771F8A95E2F738
:10083000CB018095842384BB089541B321E030E04F
:10084000B90102C0660F771F8A95E2F7CB01809548
:10085000842381BB08959230B1F018F4913031F0C7
:1008600008959330E9F0943041F108954AB321E0BE
:1008700030E0B90102C0660F771F8A95E2F7CB011D
:10088000842B8ABB089547B321E030E0B90102C050
:10089000660F771F8A95E2F7CB01842B87BB0895FB
:1008A00044B321E030E0B90102C0660F771F8A959A
:1008B000E2F7CB01842B84BB089541B321E030E003
:1008C000B90102C0660F771F8A95E2F7CB01842B2E
:1008D00081BB08959DEC899F912D11249695969545
:1008E0009695392F330F232F220F220F230F821BB0
:1008F000662321F0613009F444C008959230B9F0C4
:1009000018F4913031F008959330F9F0943059F1A2
:1009100008954BB321E030E0B90102C0660F771FA4
:100920008A95E2F7CB01809584238BBB089548B369
:1009300021E030E0B90102C0660F771F8A95E2F727
:10094000CB018095842388BB089545B321E030E036
:10095000B90102C0660F771F8A95E2F7CB01809537
:10096000842385BB089542B321E030E0B90102C081
:10097000660F771F8A95E2F7CB018095842382BBAF
:1009800008959230B1F018F4913031F00895933019
:10099000E9F0943041F108954BB321E030E0B90122
:1009A00002C0660F771F8A95E2F7CB01842B8BBBC1
:1009B000089548B321E030E0B90102C0660F771F07
:1009C0008A95E2F7CB01842B88BB089545B321E0DB
:1009D00030E0B90102C0660F771F8A95E2F7CB01BC
:1009E000842B85BB089542B321E030E0B90102C0F9
:1009F000660F771F8A95E2F7CB01842B82BB08959F
:100A00009DEC899F912D1124292F269526952695B9
:100A1000220F322F330F330F230F821B282F892FE2
:100A20008695869586958230A1F018F4813031F054
:100A300008958330C9F0843011F108953BB381E00B
:100A400090E002C0880F991F2A95E2F783278BBB9D
:100A5000089538B381E090E002C0880F991F2A956D
:100A6000E2F7832788BB089535B381E090E002C0A8
:100A7000880F991F2A95E2F7832785BB089532B323
:100A800081E090E002C0880F991F2A95E2F7832742
:100A900082BB08959DEC899F912D1124292F2695C5
:100AA00026952695220F322F330F330F230F821BEB
:100AB000282F892F869586958695823091F018F497
:100AC000813031F029C08330A9F08430E1F024C0B6
:100AD00089B390E002C0959587952A95E2F78170D9
:100AE000089586B390E002C0959587952A95E2F720
:100AF0008170089583B390E002C0959587952A95FB
:100B0000E2F78170089580B390E002C095958795D3
:100B10002A95E2F78170089580E008959DEC899F01
:100B2000912D1124969596959695392F330F232F55
:100B3000220F220F230F821B662321F0613009F45C
:100B400044C008959230B9F018F4913031F008950E
:100B50009330F9F0943059F108954BB321E030E02F
:100B6000B90102C0660F771F8A95E2F7CB01809525
:100B700084238BBB089548B321E030E0B90102C063
:100B8000660F771F8A95E2F7CB018095842388BB97
:100B9000089545B321E030E0B90102C0660F771F28
:100BA0008A95E2F7CB018095842385BB089542B3F3
:100BB00021E030E0B90102C0660F771F8A95E2F7A5
:100BC000CB018095842382BB08959230B1F018F454
:100BD000913031F008959330E9F0943041F1089567
:100BE0004BB321E030E0B90102C0660F771F8A9550
:100BF000E2F7CB01842B8BBB089548B321E030E0B2
:100C0000B90102C0660F771F8A95E2F7CB01842BEA
:100C100088BB089545B321E030E0B90102C0660FFA
:100C2000771F8A95E2F7CB01842B85BB089542B3E9
:100C300021E030E0B90102C0660F771F8A95E2F724
:100C4000CB01842B82BB08951F920F920FB60F9297
:100C500011242F933F934F935F936F937F938F93C1
:100C60009F93AF93BF93EF93FF93E0917200F09146
:100C700073000995FF91EF91BF91AF919F918F9173
:100C80007F916F915F914F913F912F910F900FBE88
:100C90000F901F9018951F920F920FB60F9211246C
:100CA0002F933F934F935F936F937F938F939F9374
:100CB000AF93BF93EF93FF9380916A0090916B0085
:100CC000A0916C00B0916D000196A11DB11D8093A3
:100CD0006A0090936B00A0936C00B0936D004091FC
:100CE0006E0050916F0060917000709171008417D8
:100CF0009507A607B70769F4E0917200F0917300B9
:100D0000099510926A0010926B0010926C0010927C
:100D10006D00FF91EF91BF91AF919F918F917F9166
:100D20006F915F914F913F912F910F900FBE0F9058
:100D30001F9018950E94A1066894B1110C94300779
:100D400008950E94150788F09F5798F0B92F9927AA
:100D5000B751B0F0E1F0660F771F881F991F1AF0A6
:100D6000BA95C9F714C0B13091F00E942F07B1E0D5
:100D700008950C942F07672F782F8827B85F39F0D4
:100D8000B93FCCF3869577956795B395D9F73EF43F
:100D900090958095709561957F4F8F4F9F4F0895E7
:100DA000E89409C097FB3EF4909580957095619505
:100DB0007F4F8F4F9F4F9923A9F0F92F96E9BB27BB
:100DC0009395F695879577956795B795F111F8CF37
:100DD000FAF4BB0F11F460FF1BC06F5F7F4F8F4FA2
:100DE0009F4F16C0882311F096E911C0772321F098
:100DF0009EE8872F762F05C0662371F096E8862F30
:100E000070E060E02AF09A95660F771F881FDAF786
:100E1000880F9695879597F9089557FD9058440F38
:100E2000551F59F05F3F71F04795880F97FB991F49
:100E300061F09F3F79F08795089512161306140606
:100E4000551FF2CF4695F1DF08C016161706180693
:100E5000991FF1CF86957105610508940895E8946E
:100E6000BB2766277727CB0197F90895A1E21A2EB1
:100E7000AA1BBB1BFD010DC0AA1FBB1FEE1FFF1F3E
:100E8000A217B307E407F50720F0A21BB30BE40B8E
:100E9000F50B661F771F881F991F1A9469F76095D5
:100EA0007095809590959B01AC01BD01CF0108958F
:100EB000052E97FB1EF400940E946F0757FD07D084
:100EC0000E94360707FC03D04EF40C946F07509530
:100ED0004095309521953F4F4F4F5F4F0895909526
:100EE0008095709561957F4F8F4F9F4F0895A29F7A
:100EF000B001B39FC001A39F700D811D1124911DEE
:100F0000B29F700D811D1124911D0895F894FFCF9B
:0A0F1000416C61726D004F666600CF
:00000001FF
