:100000000C944D000C9441050C946A000C946A0009
:100010000C946A000C9432060C946A000C946A00EA
:100020000C946A000C946A000C94E3050C946A002A
:100030000C946A000C946A000C946A000C946A0098
:100040000C946A000C946A000C946A000C946A0088
:100050000C946A00330238023D02420247024C020D
:100060005102600265026A026F02740279027E0226
:100070008D02920297029C02A102A602AB02BA0272
:10008000BE02C202C602CA02CE02D202E102F302DC
:100090000503170329033B034D0311241FBECFE5BE
:1000A000D8E0DEBFCDBF10E0A0E6B0E0EEEAFDE0B4
:1000B00002C005900D92A039B107D9F720E0A0E960
:1000C000B0E001C01D92A73AB207E1F70E94830099
:1000D0000C94D5060C9400000E945F030E946D03EF
:1000E0000E947F030E9498030E94B403663071054A
:1000F0008105910520F085E00E945602089585E073
:100100000E948302089581E00E94290282E00E94F9
:10011000290283E00E94290285E00E94290286E0EC
:100120000E94290287E00E94290284E00E9429029D
:100130000E94C3010E9485060E94680561E080E07C
:100140000E94140280E690E00E94FE0161E081E0DE
:100150000E94140280E790E00E94FE01D1E001E0DD
:10016000FF24F39411E00E948F06C82F813421F4FC
:10017000812F0E94B0020CC0823421F484E00E94DE
:10018000B00217C0833421F482E00E94D6021AC064
:10019000C83579F485E00E94B00267E0812F0E94A3
:1001A000140286E790E00E94FE010E94D405D1E08F
:1001B00012C0C23539F486E00E94B00287E00E9486
:1001C00083021AC0CC3439F487E00E94B00286E082
:1001D0000E94830223C0C43479F469E080E00E9465
:1001E00014028AE790E00E94FE01011142C085E0FE
:1001F0000E948302012F3DC0C73581F469E080E091
:100200000E94140283E890E00E94FE0181E0F8124F
:1002100032C085E00E948302F12C2DC0C33509F065
:10022000A2CFD130A9F467E0812F0E9414028CE89C
:1002300090E00E94FE0168EC70E080E090E00E9497
:1002400075058CE690E00E94DE050E94CA050FC08D
:10025000D1110DC067E0812F0E94140286E790E063
:100260000E94FE010E94D40585E00E948302D127EE
:100270007ACFF12E78CF00E076CFCF93C82F61E010
:100280008BE00E94610460E086E10E9461048BB310
:100290009C2F969598778778892B8BBB61E08CE0B3
:1002A0000E9461048FE99FE00197F1F700C0000010
:1002B00060E08CE00E9461048FE19EE40197F1F719
:1002C00000C000008BB3CC0FCC0FCC0FC877877861
:1002D000C82BCBBB61E08CE00E9461048FE99FE0FA
:1002E0000197F1F700C0000060E08CE00E9461041B
:1002F0008FE19EE40197F1F700C00000CF910895CF
:10030000CF93C82F60E08BE00E94610460E086E13B
:100310000E9461048BB39C2F969598778778892BE0
:100320008BBB61E08CE00E9461048FE99FE0019744
:10033000F1F700C0000060E08CE00E9461048FE1F2
:100340009EE40197F1F700C000008BB3CC0FCC0FF7
:10035000CC0FC8778778C82BCBBB61E08CE00E94BC
:1003600061048FE99FE00197F1F700C0000060E0B1
:100370008CE00E9461048FE19EE40197F1F700C0D8
:100380000000CF91089561E08BE00E94CB0361E013
:100390008CE00E94CB0361E086E10E94CB0361E028
:1003A0008DE00E94CB0361E08EE00E94CB0361E010
:1003B0008FE00E94CB0361E080E10E94CB032FEF2E
:1003C00089E698E1215080409040E1F700C00000AC
:1003D00083E30E94800182E30E94800188E20E9400
:1003E00080018CE00E94800182E00E94800186E012
:1003F0000E94800181E00E94800108950F931F9365
:10040000CF93FC018081882359F08F01C0E00E94C6
:100410003D01CF5FF801EC0FF11D80818111F7CF15
:10042000CF911F910F910895CF93DF9300D0CDB757
:10043000DEB790E8998390EC9A83FE01E80FF11DF6
:100440008181860F0E9480010F900F90DF91CF91E4
:10045000089590E0FC013197E730F10530F5E65D55
:10046000FF4F0C94B50661E08EE10E94CB03089526
:1004700061E08FE10E94CB03089561E080E20E9479
:10048000CB03089561E081E20E94CB03089561E00F
:1004900082E20E94CB03089561E083E20E94CB03D5
:1004A000089561E084E20E94CB03089590E0FC018E
:1004B0003197E730F10530F5EF5CFF4F0C94B5064E
:1004C00061E08EE10E946104089561E08FE10E9485
:1004D0006104089561E080E20E946104089561E092
:1004E00081E20E946104089561E082E20E94610459
:1004F000089561E083E20E946104089561E084E26E
:100500000E946104089590E0FC013197E730F10505
:1005100030F5E85CFF4F0C94B50660E08EE10E9478
:100520006104089560E08FE10E946104089560E035
:1005300080E20E946104089560E081E20E9461040B
:10054000089560E082E20E946104089560E083E221
:100550000E946104089560E084E20E9461040895AD
:1005600090E0FC013197E730F105F8F4E15CFF4FD2
:100570000C94B5068EE10E94F70408958FE10E9465
:10058000F704089580E20E94F704089581E20E9432
:10059000F704089582E20E94F704089583E20E941E
:1005A000F704089584E20E94F704089590E0FC01A6
:1005B0003197E730F10508F081C0EA5BFF4F0C94FA
:1005C000B50661E08EE10E9461042FEF80E792E0C2
:1005D000215080409040E1F700C0000060E08EE1D3
:1005E0000E946104089561E08FE10E9461042FEF91
:1005F00089E698E1215080409040E1F700C000007A
:1006000060E08FE10E946104089561E080E20E9451
:1006100061042FEF80E792E0215080409040E1F7A5
:1006200000C0000060E080E20E946104089561E083
:1006300081E20E9461042FEF80E792E02150804028
:100640009040E1F700C0000060E081E20E94610498
:10065000089561E082E20E9461042FEF80E792E05A
:10066000215080409040E1F700C0000060E082E24D
:100670000E946104089561E083E20E9461042FEF0B
:1006800080E792E0215080409040E1F700C00000F8
:1006900060E083E20E946104089561E084E20E94C8
:1006A00061042FEF80E792E0215080409040E1F715
:1006B00000C0000060E084E20E946104089561E0EF
:1006C0008FE20E94CB0360E08EE20E94CB0388B7EA
:1006D00099B7806299BF88BF089561E08FE20E9458
:1006E00061042FEF80E792E0215080409040E1F7D5
:1006F00000C0000060E08FE20E94610408958EB5A2
:1007000080688EBD8EB580648EBD8EB581608EBDD5
:1007100088B799B785FFFCCF86B597B590939300BE
:100720008093920088B799B7806299BF88BF089577
:100730008EB580688EBD8EB58F7B8EBD8EB5816087
:100740008EBD88B799B785FFFCCF86B597B59093D6
:1007500091008093900088B799B7806299BF88BF55
:100760001DBC1CBC1EBC08952091900030919100CE
:100770008091920090919300281B390BA8E2B7E872
:100780000E94BB0620E038E448EE51E00E94930648
:10079000CA01B90108959DEC899F912D1124969568
:1007A00096959695392F330F232F220F220F230F63
:1007B000821B662321F0613009F444C00895923011
:1007C000B9F018F4913031F008959330F9F0943085
:1007D00059F108954AB321E030E0B90102C0660F33
:1007E000771F8A95E2F7CB01809584238ABB089511
:1007F00047B321E030E0B90102C0660F771F8A9548
:10080000E2F7CB018095842387BB089544B321E0B0
:1008100030E0B90102C0660F771F8A95E2F7CB017D
:100820008095842384BB089541B321E030E0B90171
:1008300002C0660F771F8A95E2F7CB01809584236B
:1008400081BB08959230B1F018F4913031F00895E1
:100850009330E9F0943041F108954AB321E030E05B
:10086000B90102C0660F771F8A95E2F7CB01842B8E
:100870008ABB089547B321E030E0B90102C0660F9A
:10088000771F8A95E2F7CB01842B87BB089544B389
:1008900021E030E0B90102C0660F771F8A95E2F7C8
:1008A000CB01842B84BB089541B321E030E0B90132
:1008B00002C0660F771F8A95E2F7CB01842B81BBBC
:1008C00008959DEC899F912D112496959695969566
:1008D000392F330F232F220F220F230F821B662362
:1008E00021F0613009F444C008959230B9F018F451
:1008F000913031F008959330F9F0943059F1089522
:100900004BB321E030E0B90102C0660F771F8A9532
:10091000E2F7CB01809584238BBB089548B321E097
:1009200030E0B90102C0660F771F8A95E2F7CB016C
:100930008095842388BB089545B321E030E0B90158
:1009400002C0660F771F8A95E2F7CB01809584235A
:1009500085BB089542B321E030E0B90102C0660FC3
:10096000771F8A95E2F7CB018095842382BB089597
:100970009230B1F018F4913031F008959330E9F0ED
:10098000943041F108954BB321E030E0B90102C049
:10099000660F771F8A95E2F7CB01842B8BBB0895F6
:1009A00048B321E030E0B90102C0660F771F8A9595
:1009B000E2F7CB01842B88BB089545B321E030E0FA
:1009C000B90102C0660F771F8A95E2F7CB01842B2D
:1009D00085BB089542B321E030E0B90102C0660F43
:1009E000771F8A95E2F7CB01842B82BB08959DEC9B
:1009F000899F912D1124292F269526952695220F22
:100A0000322F330F330F230F821B282F892F869508
:100A1000869586958230A1F018F4813031F00895E2
:100A20008330C9F0843011F108953BB381E090E048
:100A300002C0880F991F2A95E2F783278BBB089580
:100A400038B381E090E002C0880F991F2A95E2F741
:100A5000832788BB089535B381E090E002C0880FFA
:100A6000991F2A95E2F7832785BB089532B381E069
:100A700090E002C0880F991F2A95E2F7832782BB76
:100A800008951F920F920FB60F9211242F933F9348
:100A90004F935F936F937F938F939F93AF93BF9386
:100AA000EF93FF93E091A500F091A6000995FF91C7
:100AB000EF91BF91AF919F918F917F916F915F91D6
:100AC0004F913F912F910F900FBE0F901F9018954F
:100AD00083B7886083BF83B78F7B83BF89B782600A
:100AE00089BF8FB780688FBF08958F929F92AF9212
:100AF000BF92CF92DF92EF92FF92CF939B01AC0116
:100B0000A8EEB3E00E94CA064B015C01689415F898
:100B1000B694A794979487941694D1F7C501B4011D
:100B20002FEF30E040E050E00E949306672B682BE7
:100B3000692B89F0CFEFC150CC2ED12CE12CF12CB8
:100B4000C501B401A70196010E949306672B682B8B
:100B5000692B89F705C0C12CD12C7601CA94CFEF3F
:100B6000C501B401A70196010E9493062093980045
:100B70003093990040939A0050939B00C150CCBF92
:100B8000CF91FF90EF90DF90CF90BF90AF909F906C
:100B90008F90089583B7816083BF83B78D7F83BFB4
:100BA00083B7846083BF089583B78E7F83BF83B785
:100BB0008D7F83BF83B78B7F83BF08959093A600FB
:100BC0008093A50008951F920F920FB60F921124E3
:100BD0002F933F934F935F936F937F938F939F9345
:100BE000AF93BF93EF93FF93809194009091950002
:100BF000A0919600B09197000196A11DB11D809320
:100C0000940090939500A0939600B0939700409124
:100C100098005091990060919A0070919B00841700
:100C20009507A607B70769F4E091A500F091A60023
:100C300009951092940010929500109296001092CF
:100C40009700FF91EF91BF91AF919F918F917F910D
:100C50006F915F914F913F912F910F900FBE0F9029
:100C60001F9018951F920F920FB60F9211242F9379
:100C70003F934F935F936F937F938F939F93AF9324
:100C8000BF93EF93FF9380919C0090919D00A09162
:100C90009E00B0919F000196A11DB11D80939C0004
:100CA00090939D00A0939E00B0939F004091A1005F
:100CB0005091A2006091A3007091A4008417950741
:100CC000A607B70789F4E091A500F091A600099561
:100CD00010929C0010929D0010929E0010929F0016
:100CE0008091A000819584BDFF91EF91BF91AF915C
:100CF0009F918F917F916F915F914F913F912F9134
:100D00000F900FBE0F901F9018958898899A52984F
:100D100087E689B986EA80BD549A539A08955F9B05
:100D2000FECF8CB10895A1E21A2EAA1BBB1BFD01B8
:100D30000DC0AA1FBB1FEE1FFF1FA217B307E407BA
:100D4000F50720F0A21BB30BE40BF50B661F771F12
:100D5000881F991F1A9469F76095709580959095F2
:100D60009B01AC01BD01CF010895EE0FFF1F05905F
:100D7000F491E02D0994A29FB001B39FC001A39FFD
:100D8000700D811D1124911DB29F700D811D1124C4
:100D9000911D08950E94BB06A59F900DB49F900DD4
:0E0DA000A49F800D911D11240895F894FFCF9B
:100DAE005354415445203A20466F72776172640065
:100DBE00434353203A204F464600466F7277617286
:100DCE006420004261636B77617264004F4E2000B5
:00000001FF
