:100000000C944D000C94C2040C946A000C946A0089
:100010000C946A000C946A000C946A000C946A00B8
:100020000C946A000C946A000C94E9040C946A0025
:100030000C946A000C946A000C946A000C946A0098
:100040000C946A000C946A000C946A000C946A0088
:100050000C946A00200225022A022F02340239027F
:100060003E024D02520257025C02610266026B02BE
:100070007A027F02840289028E0293029802A7020A
:10008000AB02AF02B302B702BB02BF02CE02E00274
:10009000F2020403160328033A0311241FBECFE51E
:1000A000D8E0DEBFCDBF10E0A0E6B0E0ECE9FAE0BA
:1000B00002C005900D92AC38B107D9F720E0ACE84A
:1000C000B0E001C01D92A639B207E1F70E946C00B2
:1000D0000C944C050C94000081E00E94160282E012
:1000E0000E94160283E00E94160285E00E9416021A
:1000F00086E00E94160287E00E94160284E00E94B9
:1001000016020E94B0010E943805DD24D394CC244D
:10011000C394EE24E394FF24F39411E001E00E94E1
:100120004205C82FD0E061E080E00E94010280E635
:1001300090E00E94EB0161E081E00E94010280E713
:1001400090E00E94EB01C134D10521F481E00E94CE
:100150009D0218C0C234D10521F484E00E949D02A2
:1001600022C0C334D10571F4013021F482E00E9431
:10017000C30205C0011103C082E00E94700281E049
:10018000082726C0C835D10571F4113021F485E067
:100190000E94430205C0111103C085E00E94700255
:1001A00081E018272AC0C235D10591F481E0F81208
:1001B00007C086E00E94430287E00E94700205C0EB
:1001C000F11003C086E00E94700281E0F8262BC087
:1001D000CC34D10591F481E0E81207C087E00E9499
:1001E000430286E00E94700205C0E11003C087E070
:1001F0000E94700281E0E82692CFC434D10599F4C0
:1002000069E080E00E9401028AE790E00E94EB0131
:1002100081E0C81205C085E00E94700281E01827C5
:1002200081E0C8267CCFC735D10509F078CF69E0D9
:1002300080E00E94010283E890E00E94EB0181E0EF
:10024000D81205C085E00E94700281E0182781E085
:10025000D82665CFCF93C82F61E08BE00E94E203E0
:1002600060E086E10E94E2038BB39C2F969598771D
:100270008778892B8BBB61E08CE00E94E2038FE9D9
:100280009FE00197F1F700C0000060E08CE00E9461
:10029000E2038FE19EE40197F1F700C000008BB309
:1002A000CC0FCC0FCC0FC8778778C82BCBBB61E0C5
:1002B0008CE00E94E2038FE99FE00197F1F700C014
:1002C000000060E08CE00E94E2038FE19EE4019771
:1002D000F1F700C00000CF910895CF93C82F60E0E0
:1002E0008BE00E94E20360E086E10E94E2038BB3B0
:1002F0009C2F969598778778892B8BBB61E08CE053
:100300000E94E2038FE99FE00197F1F700C000002F
:1003100060E08CE00E94E2038FE19EE40197F1F738
:1003200000C000008BB3CC0FCC0FCC0FC877877800
:10033000C82BCBBB61E08CE00E94E2038FE99FE019
:100340000197F1F700C0000060E08CE00E94E2033A
:100350008FE19EE40197F1F700C00000CF9108956E
:1003600061E08BE00E944C0361E08CE00E944C0352
:1003700061E086E10E944C0361E08DE00E944C0345
:1003800061E08EE00E944C0361E08FE00E944C032C
:1003900061E080E10E944C032FEF89E698E1215053
:1003A00080409040E1F700C0000083E30E946D01AF
:1003B00082E30E946D0188E20E946D018CE00E9440
:1003C0006D0182E00E946D0186E00E946D0181E076
:1003D0000E946D0108950F931F93CF93FC018081BC
:1003E000882359F08F01C0E00E942A01CF5FF801F5
:1003F000EC0FF11D80818111F7CFCF911F910F91EB
:100400000895CF93DF9300D0CDB7DEB790E89983FE
:1004100090EC9A83FE01E80FF11D8181860F0E9406
:100420006D010F900F90DF91CF91089590E0FC0146
:100430003197E730F10530F5E65DFF4F0C94460546
:1004400061E08EE10E944C03089561E08FE10E941B
:100450004C03089561E080E20E944C03089561E03E
:1004600080E20E944C03089561E082E20E944C0306
:10047000089561E083E20E944C03089561E084E204
:100480000E944C03089590E0FC013197E730F1059C
:1004900030F5EF5CFF4F0C94460561E08EE10E9461
:1004A000E203089561E08FE10E94E203089561E0B4
:1004B00080E20E94E203089561E081E20E94E2038B
:1004C000089561E082E20E94E203089561E083E220
:1004D0000E94E203089561E084E20E94E20308952D
:1004E00090E0FC013197E730F10530F5E85CFF4F13
:1004F0000C94460560E08EE10E94E203089560E0FE
:100500008FE10E94E203089560E080E20E94E2032E
:10051000089560E081E20E94E203089560E082E2D3
:100520000E94E203089560E083E20E94E2030895DE
:1005300060E084E20E94E203089590E0FC013197BC
:10054000E730F105F8F4E15CFF4F0C9446058EE1CD
:100550000E94780408958FE10E947804089580E253
:100560000E947804089581E20E947804089582E24E
:100570000E947804089583E20E947804089584E23A
:100580000E947804089590E0FC013197E730F1056E
:1005900008F081C0EA5BFF4F0C94460561E08EE1F4
:1005A0000E94E2032FEF80E792E0215080409040CC
:1005B000E1F700C0000060E08EE10E94E2030895D0
:1005C00061E08FE10E94E2032FEF89E698E121507C
:1005D00080409040E1F700C0000060E08FE10E94A1
:1005E000E203089561E080E20E94E2032FEF80E7DA
:1005F00092E0215080409040E1F700C0000060E0B0
:1006000080E20E94E203089561E081E20E94E20339
:100610002FEF80E792E0215080409040E1F700C04A
:10062000000060E081E20E94E203089561E082E25E
:100630000E94E2032FEF80E792E02150804090403B
:10064000E1F700C0000060E082E20E94E20308954A
:1006500061E083E20E94E2032FEF80E792E0215005
:1006600080409040E1F700C0000060E083E20E941B
:10067000E203089561E084E20E94E2032FEF80E745
:1006800092E0215080409040E1F700C0000060E01F
:1006900084E20E94E20308959DEC899F912D11242C
:1006A000969596959695392F330F232F220F220F6B
:1006B000230F821B662321F0613009F444C00895A2
:1006C0009230B9F018F4913031F008959330F9F088
:1006D000943059F108954AB321E030E0B90102C0E5
:1006E000660F771F8A95E2F7CB01809584238ABB3A
:1006F000089547B321E030E0B90102C0660F771FCB
:100700008A95E2F7CB018095842387BB089544B393
:1007100021E030E0B90102C0660F771F8A95E2F749
:10072000CB018095842384BB089541B321E030E060
:10073000B90102C0660F771F8A95E2F7CB01809559
:10074000842381BB08959230B1F018F4913031F0D8
:1007500008959330E9F0943041F108954AB321E0CF
:1007600030E0B90102C0660F771F8A95E2F7CB012E
:10077000842B8ABB089547B321E030E0B90102C061
:10078000660F771F8A95E2F7CB01842B87BB08950C
:1007900044B321E030E0B90102C0660F771F8A95AB
:1007A000E2F7CB01842B84BB089541B321E030E014
:1007B000B90102C0660F771F8A95E2F7CB01842B3F
:1007C00081BB08959DEC899F912D11249695969556
:1007D0009695392F330F232F220F220F230F821BC1
:1007E000662321F0613009F444C008959230B9F0D5
:1007F00018F4913031F008959330F9F0943059F1B4
:1008000008954BB321E030E0B90102C0660F771FB5
:100810008A95E2F7CB01809584238BBB089548B37A
:1008200021E030E0B90102C0660F771F8A95E2F738
:10083000CB018095842388BB089545B321E030E047
:10084000B90102C0660F771F8A95E2F7CB01809548
:10085000842385BB089542B321E030E0B90102C092
:10086000660F771F8A95E2F7CB018095842382BBC0
:1008700008959230B1F018F4913031F0089593302A
:10088000E9F0943041F108954BB321E030E0B90133
:1008900002C0660F771F8A95E2F7CB01842B8BBBD2
:1008A000089548B321E030E0B90102C0660F771F18
:1008B0008A95E2F7CB01842B88BB089545B321E0EC
:1008C00030E0B90102C0660F771F8A95E2F7CB01CD
:1008D000842B85BB089542B321E030E0B90102C00A
:1008E000660F771F8A95E2F7CB01842B82BB0895B0
:1008F0009DEC899F912D1124292F269526952695CB
:10090000220F322F330F330F230F821B282F892FF3
:100910008695869586958230A1F018F4813031F065
:1009200008958330C9F0843011F108953BB381E01C
:1009300090E002C0880F991F2A95E2F783278BBBAE
:10094000089538B381E090E002C0880F991F2A957E
:10095000E2F7832788BB089535B381E090E002C0B9
:10096000880F991F2A95E2F7832785BB089532B334
:1009700081E090E002C0880F991F2A95E2F7832753
:1009800082BB08951F920F920FB60F9211242F93DE
:100990003F934F935F936F937F938F939F93AF9307
:1009A000BF93EF93FF93E0919400F0919500099528
:1009B000FF91EF91BF91AF919F918F917F916F9137
:1009C0005F914F913F912F910F900FBE0F901F900D
:1009D00018951F920F920FB60F9211242F933F93E9
:1009E0004F935F936F937F938F939F93AF93BF9337
:1009F000EF93FF9380918C0090918D00A0918E00D9
:100A0000B0918F000196A11DB11D80938C00909331
:100A10008D00A0938E00B0938F0040919000509174
:100A20009100609192007091930084179507A6073A
:100A3000B70769F4E0919400F09195000995109240
:100A40008C0010928D0010928E0010928F00FF91FA
:100A5000EF91BF91AF919F918F917F916F915F9136
:100A60004F913F912F910F900FBE0F901F901895AF
:100A70008898899A529887E689B986EA80BD549AFF
:100A8000539A08955F9BFECF8CB10895EE0FFF1F20
:0C0A90000590F491E02D0994F894FFCF3C
:100A9C005354415445203A20466F7277617264007A
:100AAC00434353203A204F464600466F727761729B
:0C0ABC006420004261636B77617264008B
:00000001FF
